:020000040800F2
:1000000080270010A59A0008A19B0008C181000864
:10001000A59B0008A99B0008AD9B000800000000FC
:10002000000000000000000000000000B19B00087C
:10003000B59B0008000000002D2A0008BD02000842
:10004000B99B0008BD9B0008C19B0008C59B000828
:10005000C99B0008CD9B0008E3190008F5190008AA
:10006000071A0008191A00082B1A0008D19B00086B
:10007000D59B0008D99B0008DD9B0008E19B000888
:10008000E59B0008E99B0008ED9B0008F19B000838
:10009000F59B0008F99B0008FD9B00083D1A00082D
:1000A000019C0008059C0008099C00080D9C0008A4
:1000B000119C0008159C0008199C00081D9C000854
:1000C000219C0008259C0008299C00082D9C000804
:1000D000319C00080D1F0008359C0008399C000861
:1000E0006B1A00083D9C0008419C0008459C0008D4
:1000F000499C00084D9C0008519C0008559C000834
:10010000599C00085D9C0008619C0008659C0008E3
:10011000699C00086D9C0008719C0008759C000893
:10012000799C00087D9C0008819C0008859C000843
:10013000899C00088D9C0008919C0008959C0008F3
:10014000999C00089D9C0008A19C0008A59C0008A3
:10015000A99C0008AD9C0008B19C0008B59C000853
:10016000B99C0008BD9C0008C19C0008C59C000803
:10017000C99C0008CD9C0008D19C0008000000002C
:10018000D59C0008D99C000810B440B2002804D4C3
:100190000A01614B40B2C25407E00A015F4B40B212
:1001A00010F00F04E31803F8042C10BC704730B5AE
:1001B00097B00AA8302100F0BFF801A8142100F080
:1001C000BBF806A8102100F0B7F8002000905448B2
:1001D000006850F08050524908605148006810F0A3
:1001E00080500090009C002000904E48006850F421
:1001F00080404C4908604B48006810F480400090F3
:10020000009D0D200A905FF480300B9001200C902F
:1002100001200F90022010905FF4800011900420C4
:100220001290A820139002201490072015900AA87D
:1002300000F08AF8002803D048213B4800F04FF82E
:100240000F20019002200290002003904FF4A05054
:1002500004904FF480500590052101A800F06FFA3A
:10026000002803D05521304800F039F802200690CC
:100270004FF48070099006A800F094FB002803D08A
:100280005B21294800F02BF817B030BD38B50400C9
:100290000D0000F06CFC31BD80B500F04AFB4FF45E
:1002A0007A71B0FBF1F000F01AFD042000F01DFDA2
:1002B000FF215FF0FF30FFF767FF01BD80B500F061
:1002C00037FD00F08EFD00F09EFD00F045FD01BD04
:1002D00080B500F0D7FD02BD010000207047FEE7A9
:1002E00080B500F061FD002080F31088FFF75FFF0C
:1002F000012080F31088FFF7CFFF0C490C4800F075
:100300002DFE01F0D0FB01F00FFE0A4802F0E5F9E6
:1003100002F074FA01BD000000E400E018ED00E016
:10032000403802400070004050A00008000001105A
:10033000802700103CC50008002202F0CFBA0268F6
:10034000531C03601170704770B582B00400002C1C
:1003500001D10120F2E12078C0076FD5DFF8040653
:10036000006810F00C0004280BD0DFF8F8050068D6
:1003700010F00C0008280ED1DFF8EC0500684002F0
:1003800009D5DFF8E8050068800357D560680028C4
:1003900054D10120D2E16068B0F5803F08D1DFF888
:1003A000CC05006850F48030DFF8C015086024E008
:1003B0006068B0F5A02F10D1DFF8B005006850F4E8
:1003C0008020DFF8A8150860DFF8A005006850F469
:1003D0008030DFF8981508600FE0DFF890050068BE
:1003E00030F48030DFF884150860DFF8800500689D
:1003F00030F48020DFF874150860606800280ED0A3
:10040000FFF766FF0500DFF864050068800315D478
:10041000FFF75EFF401B6528F5D303208EE1FFF751
:1004200057FF0500DFF844050068800306D5FFF795
:100430004FFF401B6528F5D303207FE1207880071C
:100440005CD5DFF82005006810F00C0F0BD0DFF84A
:100450001405006810F00C0008281AD1DFF8080510
:100460000068400215D4DFF804050068800704D551
:10047000E068012801D0012060E1DFF8F0040068A5
:1004800030F0F800216950EAC100DFF8E01408609C
:1004900034E0E06800281ED00120DFF8D4140860A2
:1004A000FFF716FF0500DFF8C4040068800706D4D4
:1004B000FFF70EFF401B0328F5D303203EE1DFF8D2
:1004C000AC04006830F0F800216950EAC100DFF8A0
:1004D0009C14086012E00020DFF894140860FFF715
:1004E000F7FE0500DFF884040068800706D5FFF7F3
:1004F000EFFE401B0328F5D303201FE120780007FF
:1005000028D56069002812D00120DFF8681408603F
:10051000FFF7DEFE0500DFF860040068800719D4ED
:10052000FFF7D6FE401B0328F5D3032006E1002089
:10053000DFF840140860FFF7CBFE0500DFF8380451
:100540000068800706D5FFF7C3FE401B0328F5D3DC
:100550000320F3E02078400740F195800026DFF883
:100560001C040068C00012D400200090DFF80C04C6
:10057000006850F08050DFF804140860DFF8FC03D6
:10058000006810F080500090009801210E00DFF804
:10059000F0030068C00516D4DFF8E403006850F4E7
:1005A0008070DFF8DC130860FFF792FE0500DFF8CB
:1005B000D0030068C00506D4FFF78AFE401B03285D
:1005C000F5D30320BAE0A068012808D1DFF8B4030E
:1005D000006850F00100DFF8AC13086023E0A06869
:1005E000052810D1DFF89C03006850F00400DFF804
:1005F00094130860DFF88C03006850F00100DFF806
:10060000841308600FE0DFF87C03006840084000B6
:10061000DFF870130860DFF86C03006830F0040046
:10062000DFF860130860A068002810D0FFF750FEC4
:100630000500DFF850030068800719D4FFF748FE73
:10064000401B41F289318842F3D3032076E0FFF763
:100650003FFE0500DFF82C030068800708D5FFF790
:1006600037FE401B41F289318842F3D3032065E015
:10067000F6B2012E07D1DFF80403006830F0805095
:10068000DFF8F8120860A069002856D0DFF8D4021D
:10069000006810F00C0008284DD0A069022837D15E
:1006A0000020DFF8E4120860FFF712FE0500DFF813
:1006B000BC020068800106D5FFF70AFE401B032834
:1006C000F5D303203AE0E069216A0843616A50EA01
:1006D0008110A16A891EC903090C09040843E16A53
:1006E00050EA0160DFF8801208600120DFF89812FC
:1006F0000860FFF7EDFD0500DFF87002006880017B
:100700001BD4FFF7E5FD401B0328F5D3032015E0BC
:100710000020DFF874120860FFF7DAFD0500DFF84B
:100720004C020068800108D5FFF7D2FD401B03286A
:10073000F5D3032002E0012000E0002076BD70B573
:1007400004000D00002C01D10120AAE0DFF83C02DA
:10075000006810F00F00A8420BD2DFF830020570DD
:10076000DFF82802006810F00F00A84201D0012035
:1007700097E0207880071FD52078400707D5DFF85D
:10078000E401006850F4E050DFF8D81108602078E8
:10079000000707D5DFF8CC01006850F46040DFF8AF
:1007A000C4110860DFF8BC01006830F0F000A168F7
:1007B0000843DFF8B01108602078C0073BD56068B7
:1007C000012806D1DFF8A4010068800315D40120B8
:1007D00067E06068022802D06068032806D1DFF86D
:1007E0008C010068800108D401205AE0DFF87C0108
:1007F0000068800701D4012053E0DFF86801006839
:100800008008800061680843DFF858110860FFF72E
:100810005FFD06005348006810F00C006168B0EB03
:10082000810F08D0FFF754FD801B41F289318842C7
:10083000F0D3032035E05548006810F00F008542E2
:1008400009D2524805705148006810F00F00A842C4
:1008500001D0012025E02078400707D541480068F5
:1008600030F4E050E16808433E4908602078000712
:1008700008D53C48006830F46040216950EAC10066
:100880003849086000F00EF84149364A1268C2F350
:100890000312515CC8403F4908600020FFF71CFD6F
:1008A000002070BDF0B500240026002700252D484B
:1008B000006810F00C00002804D0042805D0082897
:1008C00006D032E03448050031E0344805002EE01F
:1008D0002548006810F03F000400234800684002EB
:1008E0000CD521480068C0F388102C49A1FB0001F9
:1008F0002200002302F00CF806000BE01A48006802
:10090000C0F388102449A1FB00012200002301F05C
:10091000FFFF060014480068C0F30140401C40007F
:100920000700B6FBF7F0050001E01B4805002800B2
:10093000F0BD18480068704780B5FFF7FAFF184906
:10094000084A1268C2F38222515CC84002BD80B5D9
:10095000FFF7EFFF1249034A1268C2F34232515CBB
:10096000C84002BD08380240043802400038024046
:1009700000004742800E474274380240403802402F
:10098000007000407038024060004742003C024066
:1009900008C20008700200200024F40000127A004F
:1009A00064C60008F8B5040000250026207810F081
:1009B000050F2DD00020DFF84C110860FFF788FCF0
:1009C0000500DFF844010068000106D5FFF780FC50
:1009D000401B0328F5D3032093E06068A168090752
:1009E00051EA8010DFF8241108600120DFF81411AB
:1009F0000860FFF76DFC0500DFF80C0100680001DE
:100A000006D4FFF765FC401B0328F5D3032078E0EC
:100A10002078800774D500200090DFF8F40000688B
:100A200050F08050DFF8E8100860DFF8E40000685C
:100A300010F080500090009FDFF8D800006850F45C
:100A40008070DFF8D0100860FFF742FC0500DFF887
:100A5000C4000068C00506D4FFF73AFC401B032819
:100A6000F5D303204DE0DFF8B000006810F44070CB
:100A70000600002E25D0E06810F44070864220D099
:100A80002548006830F440700600012023490860C2
:100A9000002022490860204806601F480068C007FF
:100AA0000FD5FFF715FC05001B480068800708D428
:100AB000FFF70EFC401B41F289318842F4D303203A
:100AC0001FE0E06810F44070B0F5407F0AD1144890
:100AD000006830F4F810E168124A114008431049E8
:100AE000086005E00E48006830F4F8100C49086012
:100AF00009480068E1680905090D084306490860CE
:100B00000020F2BD680047420038024084380240AD
:100B1000403802400070004070380240400E4742AA
:100B200008380240FFFCFF0FF0B40400171D380026
:100B3000C008C0004438050000273E00112E04D232
:100B40000D4F45F82670761CF8E769620027AF6202
:100B50000027EF6200272F6300276F63AB63EC630E
:100B60005FF080772F6400272F60F0BC7047034848
:100B70000349086070470000EFBEADDE0400FA05CF
:100B80000CED00E0002804D090FAA0F0B0FA80F05C
:100B9000401C704710F00702DFF870311B68190025
:100BA0004FF6FF031940DFF8683153EA0223194377
:100BB000564B1960704755480068C0F302207047D3
:100BC00040B2002808D4012110F01F029140514A80
:100BD00040B2430942F82310704740B200280CD4B9
:100BE000012110F01F0291404B4A40B2430942F8E4
:100BF0002310BFF34F8FBFF36F8F704710B440B215
:100C0000002804D40A01454B40B2C25407E00A014F
:100C1000434B40B210F00F04E31803F8042C10BC4F
:100C2000704770B4030013F00704D4F10706052ED3
:100C300001D3042001E0D4F10700261D072E01D2C4
:100C4000002500E0E51E012616FA00F0401E0840CF
:100C5000A8400121A940491E1140084370BC7047BB
:100C600010B50400601EB0F1807F01D301200EE0BA
:100C7000601E2C4908600F215FF0FF30FFF7BEFFB8
:100C8000002029490860072028490860002010BD7D
:100C900010B504002000FFF77DFF10BDF8B504007B
:100CA0000D0016000027FFF786FF0700320029001D
:100CB0003800FFF7B6FF0100200040B2FFF79EFFAB
:100CC000F1BD10B50400200040B2FFF779FF10BD60
:100CD00010B50400200040B2FFF77FFF10BD10B533
:100CE00004002000FFF7BCFF10BD042806D10F4907
:100CF000096851F004010D4A116005E00B490968CB
:100D000031F00401094A1160704700000CED00E069
:100D10000000FA0500E100E080E100E000E400E00E
:100D200018ED00E014E000E018E000E010E000E062
:100D300010B501F065FE04001A480078401C1949FE
:100D4000087016480068002802D0144800688047E0
:100D5000200001F059FE10BD10B501F051FE040055
:100D600010480078401E0F4908700D4800680028A0
:100D700002D00B4800688047200001F045FE10BDFE
:100D800038B501F03DFE0500064800780400280053
:100D900001F03AFE2000C0B232BD0000E80300209E
:100DA000EC0300201C04002080B51248006850F4B9
:100DB0000070104908600F48006850F480600D49C9
:100DC00008600C48006850F480700A4908600320ED
:100DD000FFF75EFF0020FFF77FFA01F091FE002091
:100DE00002BD0648006804490978401803490860B4
:100DF00070470000003C02407502002018040020EB
:100E00000F480068704710B50D480068401C0C4939
:100E1000086001F07EFF0400A06C401EA064A06C7E
:100E2000002809D1606CA06494F8340050F00800E8
:100E300084F8340002F083F902F0AAFC10BD00002F
:100E4000040000100100002903D55FF0FF321000FC
:100E500017E04FF47A7291FBF2F24FF47A735A432F
:100E600010004FF47A7291FBF2F302FB13124FF46D
:100E70007A735A4302F2E7324FF47A7392FBF3F239
:100E80001018704780B5FFF7BBFF02BD70B50400B6
:100E9000DFF8A4050068844206D2A122DFF89C1581
:100EA000DFF89C0501F069FCDFF8980500688442D2
:100EB00006D3A222DFF88415DFF88C0501F05DFC73
:100EC0006088002806D0A322DFF87015DFF87C05C3
:100ED00001F053FCDFF86005006861680818050040
:100EE000AC421BD06888002818D1DFF8580500688C
:100EF000854213D0DFF858050068A84202D1DFF818
:100F00005005046068686060DFF82C050068201AEE
:100F1000DFF8241509686A6851188860DFF8180539
:100F20000068A16808180600A64216D0708800283C
:100F300013D1DFF81C050068A04202D1DFF81005CC
:100F4000066060687060DFF8F0040068301ADFF84F
:100F5000E814096862685118886070BD2DE9F8438B
:100F600004000D00E01C8708BF005FEA95085FEAF7
:100F7000880801F045FD8146FFF702FF00280BD0ED
:100F8000DFF8D014DFF8D00401F0C7FBD222DFF87D
:100F9000C41430A001F0F1FB484601F035FDB8F172
:100FA000190F4ED3B8F11800B8424AD3B8EB070076
:100FB0001838DFF8A8140860DFF87C040760DFF851
:100FC0007804006806004FF4F5503080DFF88C0498
:100FD00000680C3070600020B06000207080DFF886
:100FE0005804006871680818DFF8581408604FF456
:100FF000F550DFF85014096808800120DFF8441428
:1010000009684880DFF8540400680C30DFF83414B5
:1010100009684860DFF8440400680C30DFF82414E5
:101020000968886000230122DFF83414DFF83404F3
:1010300002F03AFDDFF800040068DFF814140860DD
:1010400005E02A002100DFF8200401F066FBBDE87E
:10105000F1830000300000002DE9F8438046B8F12C
:10106000000F01D100202FE101F0CAFC8146FFF7FB
:1010700087FE00280CD0DFF8F413DFF8DC0301F062
:101080004CFB4FF48C72DFF8E41390A001F075FB79
:10109000484601F0B9FC18F1030080088000804543
:1010A000FFD118F103005FEA90085FEA8808DFF8D3
:1010B000AC030068404501D2002005E1B8F10C0FF7
:1010C00001D20C2080465FF0FF31DFF8980302F078
:1010D0000FFDDFF87C030068DFF85C130968401A35
:1010E0000400DFF878030068B0EB0800844280F069
:1010F000E780DFF8440300682018060070880028A5
:1011000040F0D9807068001B0C384045C0F0D38097
:101110007068001B0C3818F11801884238D318EB9E
:1011200004000C300500DFF81003006828180700E1
:101130004FF4F55038800020788070687860BC608B
:101140007560012070807868DFF8101309680C3131
:10115000884205D0DFF8E0020068796808188560E9
:10116000DFF80C03006818F10C010818DFF8001311
:101170000860DFF800030068DFF8F41209688842AD
:1011800023D2DFF8EC020068DFF8E81208601CE008
:1011900001207080DFF8D802006871680818801B91
:1011A000DFF8941209680818DFF8C4120860DFF845
:1011B000C4020068DFF8B8120968884205D2DFF877
:1011C000B0020068DFF8AC1208604FF4F5503080D0
:1011D000DFF87C02006886422FD1DFF874020068D5
:1011E0004088002813D0DFF868020068DFF8541246
:1011F000096888420BD0DFF840020068DFF850121F
:10120000096849680818DFF848120860E5E7DFF860
:1012100040020068DFF82C12096888420DD0DFF820
:10122000300200684088002807D04FF4C172DFF810
:101230003C12DFF8440201F0A0FADFF8280202F0C5
:10124000EEFCDFF80002006818EB06010C31884262
:1012500007D24FF4C372DFF81412DFF8200201F056
:101260008CFA16F10C000421B0FBF1F202FB110222
:10127000002A07D040F28712DFF8F011DFF80002F1
:1012800001F07BFA16F00300002807D04FF4C47277
:10129000DFF8D811DFF8EC0101F06FFA644800685C
:1012A000002805D0414616F10C00614A12689047AB
:1012B00016F10C0008E0604800682018446810E748
:1012C000684802F0ACFC0020BDE8F283300000006A
:1012D00070B504000D0005FB04F0FFF7BDFE06002D
:1012E000002E05D005FB04F20021300000F0A1FE25
:1012F000300070BD70B50400002C00F0838001F058
:101300007FFB0600FFF73CFD002809D05E495248EC
:1013100001F003FA40F22F225B493BA001F02DFAC5
:10132000300001F071FB14F00300002805D040F2FA
:1013300031225549554801F020FA3F48006884425F
:1013400003D340480068844205D340F233224E491B
:101350004F4801F012FA37480068002803D02000F7
:1013600034490968884734480068844203D33548C3
:101370000068844200D345E0B4F10C0005005FF042
:10138000FF31384802F0B4FB6888002803D0288871
:10139000B0F5F55F08D03F4801F0BFF92B886A88A7
:1013A00029003D4801F0B9F96888002805D140F2CC
:1013B00051223549394801F0E0F92888B0F5F55F48
:1013C00005D040F252223049354801F0D6F90020CC
:1013D00068804FF4F55028801D480068854201D28E
:1013E0001B480560224800686968401A281812499D
:1013F0000968401A1E4908602800FFF747FD194890
:1014000002F00DFC70BD00003000000080B51348F4
:101410000168244801F081F915480168224801F06B
:101420007CF914480168214801F077F901BD0000FA
:10143000DC020010E0020010E402001028C40008E2
:10144000E0B30008E8020010A4AD000898C000084E
:10145000EC020010ACBC000880B0000810030010C3
:1014600004C60008F0020010F0A7000834C4000809
:101470001403001018030010A8B0000830A50008DD
:1014800084A3000864AC00080CC6000894AC0008F3
:101490003CA20008DCB50008C4AC000840C4000849
:1014A000F8B50008C0BC0008D4BC000800B40008AF
:1014B0002DE9F843040000250027200000F035FE48
:1014C0008146B9F1040F02DBB9F1060F02DB7FF0B0
:1014D00009002AE02078502802D1A0782E2802D0D6
:1014E0007FF0090021E06078412808DB60785B2804
:1014F00005DA6078413806000320804602E07FF07C
:10150000090012E0C84508DA0A20474318F8040029
:101510003038C71918F10108F4E716F00F0017F07A
:101520000F0151EA001005002800BDE8F2832DE903
:10153000F04104000D001600C5F30310092814D271
:10154000C5F303104FF48061DFF8782601FB00201B
:101550000700012015F00F01884080463200D2B20A
:10156000414689B2380002F072FDBDE8F0812DE9F4
:10157000F04104000D005FF00008C5F303100928D6
:1015800013D2C5F303104FF48061DFF8382601FB56
:1015900000200600012015F00F01884007003900E7
:1015A00089B2300002F047FD80464046BDE8F08138
:1015B00070B586B004000D001600C5F303100928AD
:1015C00038D2012015F00F01884080B20090012030
:1015D00001900020029002200390002E04D10120EF
:1015E0000190002002901AE0012E04D10020019009
:1015F0000020029013E0022E04D10020019001206F
:1016000002900CE0032E04D10020019002200290F1
:1016100005E0042E03D1112001900020029000A9C2
:10162000C5F303104FF48062DFF8983502FB0030F9
:1016300002F05AFB06B070BD010000200200202A13
:1016400007DA01209040884201D1100003E0521CCB
:10165000F5E75FF0FF30704710B504002000FFF79A
:10166000EBFF0100002901D4102901D3002003E081
:10167000DFF8540510EB810010BD2DE9F0470400A0
:101680000D0016001F00DDF820805FF0FF3AC5F363
:101690000310092802D37FF0050065E0012015F052
:1016A0000F01884080B2FFF7C7FF8246BAF1000FF2
:1016B00002D4BAF1100F01D3062055E001F0A0F9D1
:1016C0008146DFF808050C2101FB0A00B0F9000093
:1016D000A8421DD1DFF8F4040C2101FB0A00406888
:1016E0003900884214D1DFF8E4040C2101FB0A0020
:1016F0004088B0420CD1DFF8D4040C2101FB0A0071
:101700008068404504D1484601F07EF900202BE076
:10171000DFF8B8040C2101FB0A00B0F9000010F159
:10172000010F04D0484601F06FF907201CE0DFF8F4
:101730009C040C2101FB0A000580DFF890040C21B9
:1017400001FB0A004760DFF884040C2101FB0A005A
:101750004680DFF878040C2101FB0A00C0F80880FD
:10176000484601F051F90020BDE8F087F8B50400C3
:101770000D005FF0FF37C5F30310092802D37FF097
:10178000050040E0012015F00F01884080B2FFF70E
:1017900053FF0700002F01D4102F01D3062032E0A1
:1017A00001F02EF90600DFF824040C2101FB0700EC
:1017B000B0F9000010F1010F04D1300001F024F95C
:1017C000002020E05FF0FF30DFF800140C2202FB65
:1017D000071108800020DFF8F4130C2202FB071128
:1017E00048600020DFF8E4130C2202FB0711488058
:1017F0000020DFF8D8130C2202FB071188603000AC
:1018000001F002F90020F2BD2DE9F04385B004009B
:101810000D0016005FF0FF39C5F30310092802D34D
:101820007FF00500BCE0012E65D1012015F00F010D
:10183000884080B2FFF700FF8146B9F1000F02D463
:10184000B9F1100F01D30620AAE001F0D9F88046C3
:10185000DFF878030C2101FB0900B0F9000010F15A
:10186000010F04D1404601F0CFF8062098E0DFF8E0
:10187000580310EB89000700012015F00F01884084
:1018800080B2009002200390D0480C2101FB090097
:101890004088002803D002280BD005D30DE0022099
:1018A0000290CB48019008E001200290C9480190C5
:1018B00003E000200290C848019000A9C5F303107E
:1018C0004FF48062BF4B02FB003002F00DFA0022A1
:1018D000052197F90200FFF7E1F997F90200FFF7F8
:1018E000F0F9BE48006839880843BC4908604046A2
:1018F00001F08AF853E0002E4ED1012015F00F01BF
:10190000884080B2FFF7A8FE0700002F01D1062013
:1019100046E001F075F88046012015F00F0110FA3D
:1019200001F189B2C5F303104FF48062A54B02FBAD
:10193000003002F0CFFAA948006839888843A749E7
:101940000860388820280DDB3888B0F5007F09DC76
:10195000A248006810F4787F1AD197F90200FFF7C7
:10196000B7F915E03888B0F5806F0DDB3888B0F531
:10197000004F09DC9948006810F47C4F08D197F9B2
:101980000200FFF7A5F903E097F90200FFF7A0F9BD
:10199000404601F039F802E07FF0050000E0002049
:1019A00005B0BDE8F08310B5040088480C2101FBA8
:1019B0000400406800280AD084480C2101FB040080
:1019C000806882490C2202FB04114968884710BDD7
:1019D00010B50400A4B22000FFF72EFEFFF7E3FFCE
:1019E00010BD80B5FFF7A4F9012002F03AFBFFF724
:1019F000B3F901BD80B5FFF79BF9022002F031FB7E
:101A0000FFF7AAF901BD80B5FFF792F9042002F0B3
:101A100028FBFFF7A1F901BD80B5FFF789F9082080
:101A200002F01FFBFFF798F901BD80B5FFF780F9C1
:101A3000102002F016FBFFF78FF901BD80B5FFF70C
:101A400077F9202002F00DFB402002F00AFB8020F5
:101A500002F007FB4FF4807002F003FB4FF40070BC
:101A600002F0FFFAFFF778F901BD80B5FFF760F9E2
:101A70004FF4806002F0F5FA4FF4006002F0F1FAE2
:101A80004FF4805002F0EDFA4FF4005002F0E9FA02
:101A90004FF4804002F0E5FA4FF4004002F0E1FA22
:101AA000FFF75AF901BD2DE9F04F83B000200090F7
:101AB0004B48006850F001004949086048480068F8
:101AC00010F0010000900098019000200090444820
:101AD000006850F00200424908604148006810F078
:101AE00002000090009C002000903D48006850F0EB
:101AF00004003B4908603A48006810F00400009078
:101B0000009D002000903648006850F008003449DD
:101B100008603348006810F008000090009E002024
:101B200000902F48006850F010002D4908602C48A4
:101B3000006810F010000090009F002000902848DE
:101B4000006850F02000264908602548006810F021
:101B500020000090DDF80080002000902048006800
:101B600050F040001E4908601D48006810F0400019
:101B70000090DDF80090002000901948006850F0B7
:101B80008000174908601648006810F08000009037
:101B9000DDF800A0002000901148006850F480702B
:101BA0000F4908600E48006810F480700090DDF85E
:101BB00000B000220B4902A002F0E4FABDE8FE8F5B
:101BC00070696E000000024038A700080000002085
:101BD000000011100000211000003110E40300206B
:101BE00030380240C0B5000840B200280DD40121B1
:101BF00010F01F029140DFF8CC2340B2430942F8B5
:101C00002310BFF34F8FBFF36F8F704770B5040081
:101C10000D00002C06D16722DFF8AC13DFF8AC030F
:101C200000F0ABFD002D06D16822DFF89C13DFF831
:101C3000A00300F0A2FDB4F148000600306C40683B
:101C40003060286870600020B0610C207061002056
:101C5000F061287910F00F00082802D0092803D07D
:101C600006E00020B06005E04FF48050B06001E075
:101C70000020B0606868000910F00300002802D05E
:101C8000012803D006E00020F06005E04FF400508A
:101C9000F06001E00020F0606868800910F0030047
:101CA000002803D0022808D003D30AE000203061C6
:101CB00009E04FF4C060306105E04FF480603061AE
:101CC00001E000203061300002F0FEFA002802D06E
:101CD0005FF0FF3000E0002070BDF8B504000D009B
:101CE0001600002C04D1AE22BA49B84800F045FDD8
:101CF000B4F1480007002800042822D010280DD095
:101D0000112828D1386C90F90800FFF76DFF38686A
:101D1000C06830F020003968C8601CE00022012152
:101D2000386C90F90800FEF7B9FF386C90F908009C
:101D3000FEF7C7FF3868C06850F020003968C860F7
:101D400009E0380002F0FBFA002804D0E622A1499D
:101D50009BA000F012FD0020F2BD70B504000D0044
:101D6000002C04D1F1229C49984800F006FDB4F102
:101D7000480006007FF0400031680860EDB230682E
:101D80004560306800684006FBD5012070BD70B525
:101D90000400002C05D14FF4827290498B4800F06A
:101DA000ECFCB4F1480006005FF0FF30050030683D
:101DB0000068800603D530684068C0B2050028007E
:101DC00070BD2DE9F04104000D0016001F00002C2D
:101DD00005D14FF48C7282497C4800F0CEFC002D76
:101DE00005D140F219127E497E4800F0C6FCB4F1DC
:101DF00048008046002E01D100200EE0022F0BD1BA
:101E0000320092B22900404602F0B8FA002801D10F
:101E1000300002E0002000E00020BDE8F08138B58D
:101E20000400002C05D14FF49E726F49674800F002
:101E3000A4FCB4F14800050028680068800608D5B5
:101E40002868C068800604D50121200002F0CAFF7E
:101E50005BE028680068000708D50020009028682B
:101E60000068009028684068009000982868006822
:101E7000400708D500200090286800680090286876
:101E800040680090009828680068800708D5002006
:101E900000902868006800902868406800900098CA
:101EA00028680068C00708D50020009028680068EE
:101EB0000090286840680090009828680068C00575
:101EC00003D57FF480702968086028680068800561
:101ED00003D57FF400702968086028680068000650
:101EE00003D57FF0800029680860286800684006F4
:101EF00003D57FF0400029680860286800688006E4
:101F000003D57FF020002968086031BD80B5FEF759
:101F10000FFF3648FFF783FFFEF71EFF01BD0020CD
:101F20003349A1F8440070472DE9F04101263148BA
:101F3000D0E900450027FFF7F2FF5FF00008B04549
:101F40003BD22D48142101FB080029499C2202FBA9
:101F500008110864294826499C2202FB0811C1F88F
:101F6000880023489C2101FB08008C30C0E9004513
:101F700000231F489C2101FB0800B0F8440040F2F8
:101F8000035151EA00021A489C2101FB0800006C31
:101F9000016817485FF09C0C0CFB0800483002F009
:101FA000EBFE0700002F05D04FF486621449154858
:101FB00000F0E3FB18F10108C1E73800BDE8F0814B
:101FC0003000000080E100E038C000080CBC0008D0
:101FD00048C0000858C00008C8C30008D4C300089F
:101FE00020BC000868C00008E0C30008C002002050
:101FF00078020020DCC500084C0200205CBC000810
:1020000034BC000848BC000838B50400FEF7B8FE30
:10201000002803D0DFF8A007046009E000F079FE93
:102020000500002D03D1DFF89007046000E02C6369
:1020300031BDF0B40300CEB2042A1CD310F0030764
:10204000002F18D1050056EA06273C0054EA044444
:10205000102A09D32C602D1D2C602D1D2C602D1DE8
:102060002C602D1D103AF3E7042A03D32C602D1D9C
:10207000121FF9E72B0017007A1E002F02D01E70E6
:102080005B1CF8E7F0BC704730B403000C009C42C6
:102090000DD21519AB420AD2D318141915006A1EB5
:1020A000002D0DD05B1E641E25781D70F6E715000F
:1020B0006A1E002D04D025781D70641C5B1CF6E799
:1020C00030BC704730B4002A13D003000C002578D0
:1020D000641C1D705B1CEDB2002D07D1521E002A3E
:1020E00003D000251D705B1CF8E702E0521E002A99
:1020F000EDD130BC704730B403000020002A11D06D
:1021000093F9004091F90050641B2000491C40B233
:10211000002804D11C00631C2478002C00D101E0AD
:10212000521EEBE740B230BC704701000A78002A2B
:1021300001D0491CFAE7081A704780B5DFF87C0621
:1021400000F0EBFADFF8780600F0E7FADFF8740643
:102150000090032300220421DFF86C0600F0DDFA72
:10216000DFF8680600F0D9FA01BD30B402000A2990
:102170000CD113680A24B3FBF4F504FB15331800E3
:1021800013680A24B3FBF4F3136009E01368102406
:10219000B3FBF4F505FB1435280013681B09136025
:1021A00030BC7047010000200A681278303A0A2AD1
:1021B00008D20A68531C0B600A23127803FB002024
:1021C0003038F1E770472DE9FC4F87B004000D006F
:1021D000139EDDF850A00196129880465FEA4A608F
:1021E00002D5DFF8EC9501E0DFF8E8955FEACA6018
:1021F00001D53AF0010A5FEACA7002D55FF0300BF0
:1022000001E05FF0200B00208DF800005FEA8A708B
:1022100016D50798002806D52D208DF800000798C0
:10222000404207900CE05FEA4A7003D52B208DF8FE
:10223000000005E05FEA0A7002D520208DF800005A
:10224000002007000798002804D1302002A9785404
:102250007F1C0CE00798002809D0089907A8FFF711
:1022600084FF10F8090002A978547F1CF2E7BE42EF
:1022700000DA3E00B8EB06081AF0110F13D19DF8F2
:102280000000002804D0B8F1010F01DBB8F101080B
:102290004046B0F10108012805DBAC4201D2202004
:1022A0002070641CF4E79DF80000002807D0AC42C1
:1022B00002D29DF800002070B8F10108641C5FEAAA
:1022C000CA600AD44046B0F10108012805DBAC42DF
:1022D00001D284F800B0641CF4E73000461E874247
:1022E00005DAAC4201D230202070641CF5E73800DA
:1022F000471E012809DB0198002806D0AC4202D213
:1023000002A8385C2070641CF1E74046B0F1010877
:10231000012805DBAC4201D220202070641CF4E7C8
:10232000200009B0BDE8F08F2DE9F74F86B01C0002
:10233000069883460698079908180700069887426A
:1023400005D25FF0FF3007000698381A079008980A
:102350000078002800F0908108980078252808D09F
:10236000BB4503D2089800788BF800001BF1010BE5
:102370007EE1002081460898401C0890089800786B
:102380002D2802D159F01009F5E7089800782B287C
:1023900002D159F00409EEE708980078202802D10C
:1023A00059F00809E7E708980078232802D159F086
:1023B0002009E0E708980078302802D159F0010997
:1023C000D9E75FF0FF3082460898007830380A2855
:1023D00004D208A8FFF7E6FE824610E008980078CD
:1023E0002A280CD10898401C08902068241D824699
:1023F000BAF1000F03D5DAF1000A59F010095FF0C5
:10240000FF300490089800782E281BD10898401CB3
:1024100008900898007830380A2804D208A8FFF7F6
:10242000C1FE049009E0089800782A2805D1089890
:10243000401C08902068241D04900498002801D5B1
:102440000020049000208DF80C000898007868287F
:1024500003D0089800786C2806D1089800788DF889
:102460000C000898401C08900A208DF80D00089870
:102470000078252800F0A280582800F0AB8063285F
:1024800013D0642800F0AC80692800F0A9806F2880
:1024900000F09C80702879D0732830D0752800F027
:1024A000A180782800F098809DE05FEAC9600CD494
:1024B000BAF1010ABAF1010F07DBBB4502D22020B5
:1024C0008BF800001BF1010BF2E72068241D8DF84A
:1024D0000E00BB4503D29DF80E008BF800001BF1E7
:1024E000010BBAF1010ABAF1010F07DBBB4502D2B9
:1024F00020208BF800001BF1010BF2E7B8E0206808
:10250000241D8046B8F1000F02D1DFF8CC028046CE
:102510004046FFF70AFE05900498012805DB049861
:102520000599884201DA049805905FEAC9600DD4E4
:102530005046B0F1010A0599814207DABB4502D243
:1025400020208BF800001BF1010BF1E700200600B2
:10255000059886420BDABB4503D298F800008BF849
:1025600000001BF1010B18F10108761CF0E7504642
:10257000B0F1010A0599814207DABB4502D2202059
:102580008BF800001BF1010BF1E771E01AF1010F6C
:1025900003D10820824659F001092268241D5FFA00
:1025A00089F9CDF8089004980190CDF800A0102387
:1025B00039005846FFF707FE834659E0BB4502D273
:1025C00025208BF800001BF1010B51E008208DF84D
:1025D0000D0020E059F0400910208DF80D001AE0A0
:1025E00059F0020917E0BB4502D225208BF8000004
:1025F0001BF1010B08980078002808D0BB4503D2D6
:10260000089800788BF800001BF1010B02E0089895
:10261000401E08902CE09DF80C006C2806D1206824
:10262000241D05005FEA897012D511E09DF80C00A9
:10263000682808D12068241D80B205005FEA8970EF
:1026400006D52DB204E02068241D05005FEA8970DC
:102650005FFA89F9CDF8089004980190CDF800A0B0
:102660009DF80D302A0039005846FFF7ACFD83462F
:102670000898401C08906AE60798002808D0BB45D7
:1026800003D200208BF8000002E0002007F8010CC4
:102690000698BBEB000009B0BDE8F08F70B50400F0
:1026A0000D00160033002A005FF0FF312000FFF715
:1026B0003BFE70BD0CB4F8B504000D0006A8070081
:1026C0003A0029002000FFF7E9FF06003000F2BCC5
:1026D0005DF80CFB41480068704770B504003F4846
:1026E00000680600200002F058FC0500B54201D148
:1026F000002010E0002D0DD038480068002803D0DD
:102700003648006802F0AAFC4321280002F04CFC85
:1027100032480560300070BD70470EB4F0B504005B
:1027200005A805002B0022007F212D48FFF7FCFDA6
:102730000600802E01D37F2006002848006800286C
:1027400003D12748FFF7E8FF14E024480068078B0F
:1027500022480068008B50F0400020490968088337
:1027600033001F4A00211D48006802F0DDFC1B48B1
:1027700000680783F0BC5DF810FB70B582B0040000
:102780000D00160000208DF8000016480068002893
:102790000AD133002A0021001348FFF7BEFF9DF83D
:1027A0000000002806D1FAE73200290020000D4B76
:1027B0001B68984773BD0000F003002004C40008A4
:1027C000F8B1000810C40008C0B3000878AD0008D4
:1027D00098BC000884BC0008ECC50008F403002085
:1027E00014030020F80300202CAA000800207047E2
:1027F00000207047002070470020704710B51D482A
:1028000004001D48844203D220688047241DF8E755
:1028100010BD10B5184804001848844203D220683F
:102820008047241DF8E710BD80B502F0DBFC00F006
:102830002FF8002002BD10B50400FFF7EAFF02F0F8
:10284000EEFC10BD1CB5142001900A2000904FF43E
:10285000006300220A490B4800F09CFA0400002C97
:1028600004D1C82208490948FFF787FF200000F07B
:1028700054FA13BDD4C60008D8C60008E4C6000840
:1028800037280008CCC50008E4BB0008D8BF000802
:1028900080B500F0B5F8FDF723FDFFF74EFC01F021
:1028A00051F800F023FCFFF7CDFF01F058F802F0DB
:1028B00032FD00F031FC002002BD50F8041B61B174
:1028C00050F8042BD30744BFA9F101039A18002341
:1028D00042F8043B091FFAD1EFE7704700B500BF8B
:1028E000130096469446103928BFA0E80C50FAD839
:1028F0005FEA417C28BF0CC048BF40F8042BC907E1
:1029000028BF20F8022B48BF00F8012B00BD0000B3
:102910001B4213D1094236D12AB18446B0FBF2F0F2
:1029200002FB10C2704702F033BDFCD3002200232B
:1029300070470B000200002100207047904271EBAD
:10294000030CF6D370B5B1FA81F4B3FA83F52C1BFE
:10295000A340C4F1200532FA05F63343A2405FF0EC
:102960000046E64002E05B085FEA3202841A71EB3F
:10297000030524BF204629467641F4D302000B000C
:102980003000002170BD012ACFD970B5140C20D0C1
:10299000B1FA81F4B2FA82F5C4F120046419B4F1F9
:1029A0002006D6D3B2405FF00044F440002502E098
:1029B00052085FEA3303C61A71EB020E24BF304699
:1029C000714664416D41F3D302000B0020002900E1
:1029D00070BD0C46B1FBF2F102FB11452D0445EA36
:1029E0001045B5FBF2F402FB145580B240EA0545F0
:1029F000B5FBF2F002FB105240EA044070BD00004B
:102A0000EFF3108072B6704780F310887047344A35
:102A10001368012B04D04FF001031360314A10609A
:102A2000314A11603148324901607047EFF310823A
:102A300072B62B48016851B34FF00001016029487C
:102A40000168A1B1EFF309811EF0100F01D121ED52
:102A5000108B21E9F00F4FF000041EF0100F01D190
:102A60004FF00104A1F104010C60006801601E49EF
:102A70000968096808C9B1E8F00F0BB1B1EC108B17
:102A800081F309884EF0100E0BB12EF0100E82F378
:102A900010884EF0040E704713490860EFF314825B
:102AA00022F0040282F314880E494FF000000860FF
:102AB0000B494FF0010008600E480F49D0F8002084
:102AC00041EA020101600948094901600B480068B8
:102AD000006800BF80F3088861B662B670470000E6
:102AE000E0030020D8030020DC03002004ED00E018
:102AF0000000001020ED00E00000FFFF08ED00E006
:102B000081B0002000900E48006850F480400C49CD
:102B100008600B48006810F4804000900098002185
:102B200000910849096851F08051064A1160054931
:102B3000096811F080510091009901B0704700BF01
:102B400044380240403802404060416801607047AC
:102B50000268516002680A6001604860704741681D
:102B6000026851600168426811604060416801601C
:102B7000704738B50400FFF743FF0500A06F002839
:102B800002D02000A16F88472800FFF73DFF31BD2C
:102B900038B500F0BEF80400FFF732FF0500200052
:102BA000FFF7E7FF200000F094FB042084F83400D6
:102BB00014F14C0000F07DFC200002F0FEFC012826
:102BC00003D1200002F05BFC05E014F11401DFF8F2
:102BD0002804FFF7BDFF00F0B2FA2800FFF714FF4A
:102BE00031BD2DE9F04F83B005000E001700984667
:102BF000DDF83090DDF834A00E9CDDF83CB015F126
:102C00001400FFF7A1FF2F62C5F82480C5F82890B3
:102C1000C5F82CA0EA6A2321A86AFFF70AFADFF8B0
:102C2000DC33A86AE96A0818021F696A286AFDF796
:102C30007BFFE861E4B2202C06DBAF22DFF8C01393
:102C4000DFF8C003FFF799FD85F8364085F8354079
:102C50000020A863C5F844B0C5F848B00020286338
:102C6000002085F834000020A8670020E8670020D5
:102C70000190002000902B000FF21132290015F175
:102C80004C0000F0F5FBDFF86C030068002804D06E
:102C90002800DFF86013096888470020BDE8FE8F30
:102CA0002DE9F04F85B005000E0017009846DDF8BD
:102CB0003890DDF83CA0109CDDF844B0002D07D121
:102CC0004FF48672DFF84013DFF84003FFF755FD3D
:102CD000B9F1000F07D140F20D12DFF82C13DFF825
:102CE0003003FFF74AFD32000121280002F078FB93
:102CF000CDF80CB0E4B20294CDF804A0CDF8009069
:102D000043463A0031002800FFF76BFF05B0BDE8ED
:102D1000F08FDFF800030068704710B50400002C46
:102D200007D14FF49F72DFF8F012DFF8E002FFF7EF
:102D300024FD94F834000721084207D040F23F12E6
:102D4000DFF8D412DFF8D402FFF717FD200002F0FD
:102D500045FC012807D04FF4A072DFF8BC12DFF861
:102D6000C002FFF70AFD94F8360084F83500012010
:102D700094F935108840A063022084F834002000C4
:102D800000F0CBF8FFF7C5FF002801D000F0D7F91D
:102D9000002010BD2DE9F04F85B005000E00170092
:102DA00098460E9CDDF83C902900012002F086FB3D
:102DB0008246BAF1000F01D100201AE04046FEF72A
:102DC0004BF98346BBF1000F04D1504602F0CAFB19
:102DD00000200EE0CDF80C90E4B20294CDF804800F
:102DE000CDF800B03B00320029005046FFF7F9FE55
:102DF000504605B0BDE8F08F31B5FFF78AFF0500FA
:102E0000002D06D140F21A22DFF818127F48FFF792
:102E1000B4FC280002F0E2FB012805D040F21B229E
:102E200080497F48FFF7A9FCFFF7EAFD040028006E
:102E300000F027F800AA002115F14C0000F067FC13
:102E400015F14C0000F06AFB2000FFF7DDFD00F0FB
:102E500076F9286B10F1020F01D1002028630020C1
:102E600032BD10B504002000FFF7C6FF10BD38B515
:102E700004002000FDF7E6FF05002800FFF7BCFF77
:102E800032BD70B50400002C05D14FF44172664983
:102E90005E48FFF772FC200002F0A0FB012805D07D
:102EA00040F2053260495E48FFF767FC94F8340051
:102EB00010F007000500012D04D0032D02D05FF0B3
:102EC000FF3029E0FFF79CFD0600032D09D1FFF735
:102ED00020FF844205D040F2163253495348FFF791
:102EE0004CFC200000F0F5F994F8340010F0F800E4
:102EF00050F0020084F8340014F14C0000F0D5FBCF
:102F00003000FFF781FD39480068002803D0200019
:102F1000364909688847002070BD38B50400002C88
:102F200005D14FF44D7242493848FFF726FC200086
:102F300002F054FB012805D040F235323C493848B4
:102F4000FFF71BFC94F8340010F00700022802D0B1
:102F50005FF0FF3019E0FFF753FD050014F1140096
:102F6000FFF7FDFD14F14C0000F09FFB2800FFF778
:102F70004BFD200000F078F91D480068002803D0C0
:102F800020001B4909688847002032BD38B504007D
:102F90002500002D05D140F2613226491B48FFF77C
:102FA000ECFB95F8340010F00700022805D040F241
:102FB000623220492048FFF7E0FB280002F00EFBB8
:102FC000012805D040F263321A491548FFF7D5FBB6
:102FD0007FF00100286315F11400FFF7C0FD280001
:102FE00000F042F900F0ABF831BD0000CC04001055
:102FF000D0040010D404001024040010912B000809
:1030000018C200081CB2000828C20008ECBD000865
:103010006CB900082004001000BE00089CAA00083B
:1030200074A5000838C2000814BE0008BCB6000829
:1030300028BE00083CBE00082CA80008406041687B
:10304000016070474268116042684A6041600860F0
:1030500070474168026851600168426811604060D1
:103060004168016070470168814201D1012000E0A0
:103070000020C0B2704738B50400002C04D14F22A4
:10308000BD49BE48FFF779FBA06A0078232809D123
:10309000A06AE169884205D2A06AE16A0818E1697C
:1030A000884209D22100B648FFF737FBFFF7A8FC9A
:1030B0000500002DFDD108E0A06A2030E1698842BA
:1030C00003D32100AF48FFF728FB31BD70B50400E2
:1030D000AD480068FDF756FD401E0600AB4850F8AD
:1030E0003600143805002660280070BD10B5002099
:1030F000A749088000200400202C06DAA34810EB22
:10310000C400FFF79BFF641CF6E700209E4908609F
:10311000A048FFF793FF10BD10B582B000A8FFF7DD
:10312000D5FF04009C480460200000F0D2F8032082
:1031300084F8340014F11C00FFF7AEFC13BDF8B5A1
:10314000FFF75EFC04009248B0F90000002840F050
:1031500087808D480068002800F08280002700A842
:10316000FFF7B4FF05008C48006890F8340010F0B9
:103170000700032827D18848006890F83500009997
:10318000884203D284480068050012E08248006843
:1031900090F835000099884209D17F48006890F87E
:1031A0003400000703D47C480068050001E00120DA
:1031B00007007948006890F8340010F0F70076496D
:1031C000096881F8340074480068854238D0009856
:1031D000724908707048006806006F4805606548CD
:1031E0000068002804D029003000624A1268904725
:1031F000002F02D0300000F037F8280000F069F806
:1032000095F8340010F0F80050F0030085F8340011
:103210002800FFF730FF62480078002809D115F137
:103220001C0116F11C00FFF7F2FB2000FFF7ECFB7E
:1032300019E015F11C0116F11C00FFF7E8FB0FE087
:103240005548006800F045F85348006890F834008D
:1032500010F0F80050F003004F49096881F834007D
:103260002000FFF7D1FBF1BD38B50400002C05D1DB
:1032700040F2BF224B494148FFF77FFAFFF7C0FBFE
:10328000050045480068844208D194F8340010F0E5
:10329000F80050F0030084F8340016E094F834008D
:1032A00010F0F80050F0010084F8340014F114011B
:1032B000364894F8352010EBC200FFF7C3FE3248C1
:1032C0000068A16B0843304908602800FFF79CFBA9
:1032D00031BD38B50400002C05D14FF44872324995
:1032E0002648FFF74AFAFFF78BFB050014F114009C
:1032F000FFF7AFFE254894F8351010EBC100FFF73B
:10330000B2FE002805D020480068A16B88431E4902
:1033100008602800FFF778FB31BD10B5FFF770FBA0
:1033200004001B480088401C194908802000FFF752
:103330006BFB10BD10B5FFF763FB04001448008859
:10334000401E134908801248B0F9000001280CDA29
:1033500000200F4908802000FFF756FB0E48006848
:10336000002805D0FFF7EBFE02E02000FFF74CFB42
:1033700010BD00002C0400104CB600084CBD000825
:1033800068B6000864AA00081C0400101C030010A2
:103390007407001024040010200400107B070010A4
:1033A0001C04002084B60008A0B6000840604168F4
:1033B000016070470268516002680A6001604860FD
:1033C000704741680268516001684268116040605E
:1033D0004168016070470168814201D1012000E02D
:1033E0000020C0B270472DE9F84305000E00170019
:1033F0009846089C6C72687A10F0FE006872EE6164
:103400002F620020A862C5F8248000208146B9F10F
:10341000010F07DA15EBC9001430FFF7C7FF19F1E8
:103420000109F4E7BDE8F183F8B504005FF0FF3768
:10343000FFF7E6FA06002000FFF7CDFF002804D1D1
:10344000206814380500A86A07003000FFF7DCFA8E
:103450003800F2BD38B5040000200500012D06DA61
:1034600014EBC5001430FFF7ACFF6D1CF6E731BD5F
:103470002DE9F84305000E0017009846DDF820906E
:10348000099C002D06D1C922DFF81C15DFF81C05A8
:10349000FFF773F932000A21280001F0A1FFE4B21E
:1034A00000944B46424639002800FFF79CFFBDE8D8
:1034B000F18338B50400002C06D1DE22DFF8F014C9
:1034C000DFF8E804FFF759F9200002F087F80A282E
:1034D00006D0DF22DFF8D814DFF8D804FFF74DF963
:1034E000200002F06AF8002806D1E022DFF8C014BC
:1034F000DFF8C404FFF741F9FFF782FA0500200066
:10350000FFF7A8FF607A10F0FE0060722800FFF756
:103510007BFA200001F0B3FF002032BD2DE9F0411D
:1035200082B00400002C07D140F24512DFF88C1461
:10353000DFF87804FFF721F9200002F04FF80A289D
:1035400007D04FF4A372DFF87414DFF86804FFF7B4
:1035500014F9FFF755FA07002000FFF77BFF607AA8
:1035600010F0FE006072DFF858040068002804D0F4
:103570002000DFF84C1409688847606A7FF000413A
:10358000884207D340F25512DFF83014DFF83404D4
:10359000FFF7F3F8FDF734FC616A0818A062607A5F
:1035A000400703D5DFF82004060002E0DFF81C0422
:1035B0000600009600200500002D2FD100A850F82D
:1035C000250016EBC501496888421BD000A951F8B7
:1035D00025100968EA0014328A1A1000826AA36A68
:1035E000D21A002A06D0826AA36AD21A7FF0004358
:1035F0009A4207D300A850F82500006800A941F8B6
:103600002500DBE7002D07D000A850F82500083082
:1036100000A911EB850148606D1CCDE7DFF8B00310
:103620000068401CDFF8A8130860DFF8A4030068F6
:10363000804614F114010098FFF7BCFE022005003B
:10364000022D12D218F0030F0FD1684214EBC00004
:1036500010F11C0100A86A4210EB82004068FFF7DD
:10366000A9FE5FEA98086D1CEAE7607A50F0010055
:1036700060723800FFF7C8F9607A400712D5DFF8AA
:103680005403007801280DD1DFF84C0390F8340082
:1036900010F00700022805D1DFF83C03FFF73DFCDE
:1036A000FFF74DFD0020BDE8F68138B50400002C81
:1036B00005D140F2BB12C949BC48FFF75EF82000B3
:1036C00001F08CFF0A2805D04FF4DE72C349B948D7
:1036D000FFF753F8607AC00702D45FF0FF3015E0BF
:1036E000BF480068002803D02000BD49096888470A
:1036F000FFF786F905002000FFF7ACFE607A10F0B6
:10370000FE0060722800FFF77FF9002032BDF8B597
:1037100004000D001600002C05D140F2DF12B14963
:10372000A248FFF72AF8200001F058FF0A2805D028
:103730004FF4F072AB499F48FFF71FF8FFF760F9AD
:103740000700002D09D0022D0AD003D3042D11D07B
:103750000BD318E0606A306015E03068606212E0F8
:10376000607A10F0FD0060720DE0607A50F00200A7
:10377000607208E0607AC00702D50120306001E085
:1037800000203060FFE73800FFF73EF90020F2BD6F
:103790007CB500A8009000A80190FDF731FB050062
:1037A000FFF72EF906008948FFF715FE002844D1DF
:1037B0008648006814380400A06A281A7FF0004187
:1037C00088423AD276480068002803D02000744925
:1037D000096888472000FFF73DFE607A800703D420
:1037E000607A10F0FE00607214F1140100A8FFF777
:1037F000E1FD206AE1698847FDF702FB05006948A1
:103800000068002803D0200066490968884700A89E
:10381000FFF7E1FD0028C6D114F11400FFF7D1FD38
:10382000607A10F003000328BDD1607A10F0FE002A
:1038300060722000FFF772FEB5E73000FFF7E4F892
:1038400073BD7CB500A8009000A80190FFF7D8F8E0
:1038500006005D48FFF7BFFD002850D15A480068B8
:1038600014380500FDF7CCFA0400A86A201A7FF08E
:103870000041884243D24A480068002803D028000B
:103880004749096888472800FFF7E4FD687A800700
:1038900003D4687A10F0FE00687215F1140100A8D4
:1038A000FFF788FD00204B4908703000FFF7ACF8A7
:1038B000286AE96988473B480068002803D0280047
:1038C000384909688847FFF79BF8060001204149FD
:1038D000087000A8FFF77FFD0028BAD115F1140089
:1038E000FFF76FFD687A10F003000328B1D1687A02
:1038F00010F0FE0068722800FFF710FEA9E7300004
:10390000FFF782F873BD70B504002F48FFF78CFDF8
:10391000050015F1010F06D1FFF7FBF9FFF7B1FA2A
:10392000FFF70DFC0BE0FDF76BFA0600A81B7FF01C
:103930000041884203D2AD1B2800FFF792FAFFF73F
:1039400080FFE2E710B500200400002C06D11F48DC
:1039500010EBC400FFF72AFD641CF6E710BD1FB58D
:1039600000200400002C06D1174810EBC400FFF71C
:103970001DFD641CF6E70A200390042002904FF41A
:1039800000700190184800900023184A1849124806
:10399000FFF786F91048FFF7C0F91FBD00000000CF
:1039A000680700106C07001048C2000850BE0008ED
:1039B00058C2000868A80008FCAD000868C20008EA
:1039C0000C04002040B20008E0040010D8040010ED
:1039D0007007001000000010E804001078C2000812
:1039E0001004002064BE00086805001007390008B4
:1039F0006CC6000840604168016070474268116011
:103A000042684A604160086070470168814201D1A4
:103A1000012000E00020C0B2704710B5040014F18E
:103A20001400FFF7E7FF002010BD2DE9F04104006E
:103A30000D0016002800FFF724FAF6B2002E02D07F
:103A4000012E06D023E015F114012000FFF7D6FF68
:103A50001DE020680700A74211D0B7F1140080468E
:103A600095F8350098F83510884206D215F1140102
:103A700018F11400FFF7C2FF01E03F68EBE7A7422F
:103A800004D115F114012000FFF7B8FFFFE7002073
:103A9000BDE8F08138B5040020681438050028001E
:103AA000FFF73BFA002032BDF8B504000D00160008
:103AB0001F00002C06D1D222DFF80012DFF800022E
:103AC000FEF75BFEB6F5803F06D3D322DFF8EC119C
:103AD000DFF8FC01FEF751FE2A000221200001F070
:103AE0007FFC2000FFF799FFA68367720020F2BDDC
:103AF0002DE9F3410400002C07D14FF4A872DFF840
:103B0000CC11DFF8BC01FEF738FE200001F066FDA5
:103B1000022807D040F25112DFF8B011DFF8A401FB
:103B2000FEF72BFEDFF8AC010068002804D020006F
:103B3000DFF8A01109688847FEF762FF0500A08B37
:103B4000002806D0A08B401EA0832800FEF75CFF53
:103B500058E00198002805D12800FEF755FF7FF0B6
:103B600001005AE0FEF74CFF0700FFF7D2F80028EB
:103B70000CD1DFF85811DFF86001FEF7CEFD40F2FE
:103B80007112DFF848114CA0FEF7F7FDFEF738FF81
:103B90008046FDF7F5F800280CD0DFF83011DFF88B
:103BA0002801FEF7BAFD40F27112DFF8201142A0A1
:103BB000FEF7E3FD4046FEF727FF3800FEF724FF3F
:103BC000FFF7A7F8060000203063627A310014F195
:103BD0001400FFF72AFF0198012809DB01AA002140
:103BE00016F14C00FFF793FD16F14C00FFF796FC21
:103BF0002800FEF709FFFFF7A2FA306B002801D07A
:103C0000306B0AE0DFF8D8000068002804D02000FC
:103C1000DFF8CC10096888470020BDE8F68170B550
:103C20000400002C07D140F2BD12DFF8B010DFF81D
:103C30009000FEF7A2FD200001F0D0FC022807D082
:103C40004FF4DF72DFF89410DFF87800FEF795FD8F
:103C5000DFF890000068002804D02000DFF884100E
:103C60000968884700200600FEF7CAFE050014F127
:103C70001400FFF7CAFE002806D114F11400FFF764
:103C800009FF012006000EE0A08B4FF6FF7188426D
:103C900003D0A08B401CA08305E02800FEF7B4FEF3
:103CA0007FF0020007E02800FEF7AEFE012E01D1F2
:103CB000FFF745FA002070BD30000000ECC300089B
:103CC00078C0000860A4000858B00008F8C30008D5
:103CD00070BC000808040020F4A9000888C000088F
:103CE0000C04002010040020F8B400230024002558
:103CF00000263200102A80F0EB8001269640330027
:103D00000E681E4034009C4240F0E0804E68022E57
:103D100002D04E68122E16D1D60810EB8606366AEF
:103D200035000F2612F00707FFB2BF00BE40B543B3
:103D30000E6912F00707FFB2BF00BE403543D60838
:103D400010EB860635620668350003261700FFB2C1
:103D50007F00BE40B5430E7916F003061700FFB290
:103D60007F00BE40354305604E68012E08D04E6886
:103D7000022E05D04E68112E02D04E68122E19D197
:103D80008668350003261700FFB27F00BE40B543AA
:103D9000CE681700FFB27F00BE403543856046689D
:103DA000350001269640B5434E68C6F3001696408E
:103DB00035434560C668350003261700FFB27F0013
:103DC000BE40B5438E681700FFB27F00BE4035434A
:103DD000C5604E68F60079D500260096A84E366874
:103DE00056F48046A64F3E60A54E366816F48046CF
:103DF0000096009EA34F5FEA920C57F82C703D008E
:103E00000F2712F0030C5FFA8CFC5FEA8C0C17FA98
:103E10000CF7BD439C4FB84201D1002623E09B4ED6
:103E2000B04201D101261EE0994EB04201D10226D6
:103E300019E0984EB04201D1032614E0964EB042EC
:103E400001D104260FE0954EB04201D105260AE0CB
:103E5000934EB04201D1062605E0924EB04201D108
:103E6000072600E00826F6B212F00307FFB2BF00F3
:103E7000BE403543834E970846F827508A4E366831
:103E80003500A5434E68F60300D52543864E3560C0
:103E9000864E36683500A5434E68B60300D52543E7
:103EA000824E3560824E36683500A5434E68F60274
:103EB00000D525437E4E35607E4E36683500A543DD
:103EC0004E68B60200D525437A4E3560521C11E784
:103ED000F1BC7047F0B50023002400250026320015
:103EE000102A80F0A78001269640330013EA0106CD
:103EF00034009C4240F09C80624E970856F8276040
:103F000035000F2612F00307FFB2BF00BE40354058
:103F10005D4EB04201D1002623E05C4EB04201D19B
:103F200001261EE05A4EB04201D1022619E0594E38
:103F3000B04201D1032614E0574EB04201D104260D
:103F40000FE0564EB04201D105260AE0544EB04271
:103F500001D1062605E0534EB04201D1072600E00C
:103F60000826F6B212F00307FFB2BF00BE40B5420A
:103F700024D10F2612F00307FFB2BF00BE40350068
:103F8000404E970856F82760AE433E4F5FEA920CCA
:103F900047F82C60444E3668A643434F3E60434E7C
:103FA0003668A643414F3E60414E3668A643404FB7
:103FB0003E60404E3668A6433E4F3E60066803278B
:103FC00094465FFA8CFC5FEA4C0C17FA0CF7BE4380
:103FD0000660D60810EB8606D70810EB87073F6A05
:103FE0005FF00F0C12F0070E5FFA8EFE5FEA8E0E86
:103FF0001CFA0EFC37EA0C073762866803279446E2
:104000005FFA8CFC5FEA4C0C17FA0CF7BE43866033
:10401000466801279740BE434660C668032794461A
:104020005FFA8CFC5FEA4C0C17FA0CF7BE43C660D3
:10403000521C55E7F0BD0200136989B20B4202D051
:104040000123180001E000231800C0B27047D2B26B
:10405000002A02D089B2816102E089B20B04836137
:10406000704710B5040014480068A4B2204206D07E
:10407000A4B211480460200080B2FDF7A9FC10BD75
:104080004438024008380140000002400004024069
:1040900000080240000C02400010024000140240E0
:1040A00000180240001C0240003C0140043C01405A
:1040B000083C01400C3C0140143C01402DE9F84310
:1040C00004000D0016001F00A146B9F1000F04D135
:1040D00018226F496F48FEF750FBB046B8F1000F49
:1040E00001D0042F01D0002009E0B8F80010200012
:1040F000D9F8402092689047A8F802003800BDE83F
:10410000F2832DE9F84304000D0016001F00A146BC
:10411000B9F1000F04D127225F495E48FEF72DFB5D
:10412000B046B8F1000F01D0042F01D0002009E003
:10413000B8F80220B8F800102000D9F840305B68C9
:1041400098473800BDE8F2832DE9F04104000D00E6
:104150001600A046B8F1000F04D137224F494D4850
:10416000FEF70BFB3700002F02D15FF0FF3007E0B6
:104170007A8839882000D8F840301B68984700209A
:10418000BDE8F08170B504000D001600122044490E
:10419000087500204249C86100204149086200209A
:1041A0003F49486200203E49886200203C49C8627D
:1041B0003C483B4908633C48394948633B483849D7
:1041C0008863374805643648C663032221003448B3
:1041D00000F0C6FE002070BD38B504000D00304868
:1041E000006C002804D1882232493148FEF7C5FA14
:1041F0002A0021002A482A4B1B6C1B68984731BDB6
:1042000038B504000D002648006C002804D18F2228
:1042100029492748FEF7B1FA2A0021002048204BFF
:104220001B6C5B68984731BD10B504001C48006CDE
:10423000002804D1962221491D48FEF79EFA21004C
:104240001748174A126C9268904710BD10B50400C9
:104250001348006C002804D19D2219491448FEF728
:104260008CFA2078502804D09E2215491548FEF774
:1042700084FA0B48006C8069002802D17FF00500A9
:1042800004E020000649096C8969884710BD0000D8
:1042900058C40008E8C0000864C40008F8C000085A
:1042A00094030020BD400008034100084941000874
:1042B0000CB9000870C4000808C100087CC40008DC
:1042C00088C4000818C1000810B50400002C01D1F2
:1042D000012033E0A0690028FFD194F839000028BC
:1042E00005D1002084F83800200001F0EDF92420E9
:1042F00084F839002068C06830F400502168C86034
:10430000200000F0F3F82068006930F49040216844
:1043100008612068406930F02A00216848612068FF
:10432000C06850F400502168C8600020E06320207D
:1043300084F83900202084F83A00002010BD10B520
:104340000400002C01D1012017E0242084F839005A
:104350002068C06830F400502168C860200001F077
:10436000EBF90020E063002084F83900002084F895
:104370003A00002084F83800002010BD73B5040016
:10438000150094F83900202841D10198002802D066
:10439000ADB2002D01D101203AE094F83800012897
:1043A00001D1022034E0012084F838000198206215
:1043B000A584E5840020E063212084F839000FF211
:1043C0005900216BC8630FF28500216B08640FF25E
:1043D0008D00216BC8640020216B086501A80600D0
:1043E000ADB22B002068021D3168206B01F0BEF9D0
:1043F0007FF0400021680860002084F838002068C1
:10440000406950F0800021684861002000E00220EF
:1044100076BD70477047704738B50400A56B2068BB
:104420000068C0050ED40020E8842868406930F098
:104430008000296848612868C06850F040002968F9
:10444000C86002E02800FFF7E4FF31BD38B5040082
:10445000A56B2800FFF7DEFF31BD000070B504003A
:104460000025A66B30684069C00910F00100050006
:1044700096F83900212806D1002D04D00020F084C0
:10448000300000F019F830684069800910F0010030
:10449000050096F83A00222806D1002D04D000200D
:1044A000F085300000F012F8F06B50F01000F0636F
:1044B0003000FFF7B0FF70BD0168C96831F0C0017E
:1044C0000268D160202180F8391070470168C968FE
:1044D00031F490710268D160016849694908490066
:1044E00002685161202180F83A1070472DE9F843A5
:1044F00004002068006930F44050E16808432168F6
:104500000861A0682169084361690843E1690843BB
:1045100005002068C068B949084028432168C86080
:104520002068406930F44070A169084321684861FF
:10453000E069B0F5004F40F0B0802068B049884293
:1045400003D02068AF49884253D1FCF700FA814676
:10455000FCF7FDF98046FCF7FAF90700FCF7F7F9DC
:104560000600FCF7F4F9192101FB09F16268520019
:10457000B1FBF2F16422B1FBF2F1192202FB08F265
:1045800063685B00B2FBF3F2192303FB07F3676870
:104590007F00B3FBF7F36427B3FBF7F3642707FB54
:1045A0001322D20032326423B2FBF3F212F0F8028B
:1045B000520012EB0111192202FB06F263685B0044
:1045C000B2FBF3F21923584363685B00B0FBF3F0CE
:1045D0006423B0FBF3F0642303FB1020C0003230EF
:1045E0006422B0FBF2F010F00700401821688860E8
:1045F00000E1FCF7A1F98146FCF79EF98046FCF743
:104600009BF90700FCF798F90600FCF795F91921CA
:1046100001FB09F162685200B1FBF2F16422B1FBC7
:10462000F2F1192202FB08F263685B00B2FBF3F2BD
:10463000192303FB07F367687F00B3FBF7F36427D5
:10464000B3FBF7F3642707FB1322D2003232642353
:10465000B2FBF3F212F0F802520012EB0111192230
:1046600002FB06F263685B00B2FBF3F219235843C6
:1046700063685B00B0FBF3F06423B0FBF3F06423EA
:1046800003FB1020C00032306422B0FBF2F010F0C7
:104690000700401821688860ACE0206858498842CB
:1046A00003D020685749884252D1FCF750F981461F
:1046B000FCF74DF98046FCF74AF90700FCF747F98B
:1046C0000600FCF744F9192101FB09F16268920028
:1046D000B1FBF2F16422B1FBF2F1192202FB08F204
:1046E00063689B00B2FBF3F2192303FB07F36768CF
:1046F000BF00B3FBF7F36427B3FBF7F3642707FBB3
:104700001322120132326423B2FBF3F212F0F002F0
:1047100012EB0111192202FB06F263689B00B2FB47
:10472000F3F21923584363689B00B0FBF3F0642352
:10473000B0FBF3F0642303FB10200001323064224D
:10474000B0FBF2F010F00F0040182168886051E0D3
:10475000FCF7F2F88146FCF7EFF88046FCF7ECF83E
:104760000700FCF7E9F80600FCF7E6F8192101FB61
:1047700009F162689200B1FBF2F16422B1FBF2F13F
:10478000192202FB08F263689B00B2FBF3F21923C3
:1047900003FB07F36768BF00B3FBF7F36427B3FBC2
:1047A000F7F3642707FB1322120132326423B2FBB2
:1047B000F3F212F0F00212EB0111192202FB06F2E1
:1047C00063689B00B2FBF3F21923584363689B00B4
:1047D000B0FBF3F06423B0FBF3F0642303FB102081
:1047E000000132306422B0FBF2F010F00F004018EC
:1047F00021688860BDE8F18300000000F369FFFFD5
:1048000000100140001401402DE9F04104000F00A8
:104810009046002C06D1D622DFF8D816DFF8D8064D
:10482000FDF7ABFF4646B8F1000F10D02000216C19
:10483000C9688847050015F1010F08D03D707F1C3D
:10484000B8F10108207E4006EDD50A2DEBD1B6EB7C
:104850000800BDE8F081F8B504000D001600002C3A
:1048600006D1ED22DFF89416DFF88C06FDF785FF00
:104870003700002E12D028780A2807D1207E400663
:1048800004D50D212000226C9268904729782000E1
:10489000226C926890476D1C761EEAE7B81BF2BD49
:1048A0002DE9F04704000D001600002C07D14FF44D
:1048B0008672DFF84C16DFF84006FDF75EFF370022
:1048C000E06C8046B8F1000F07D14FF48872DFF832
:1048D0003016DFF83006FDF750FF002E35D0FEF71A
:1048E0008FF88246B8F80600B8F80410884207D15D
:1048F000D8F80800002803D15046FEF785F824E0D8
:10490000D8F80000B8F80610085C8146B8F8060030
:10491000401CA8F80600B8F80600A16CC1F38F216E
:1049200089B2884202D30020A8F80600D8F808000F
:10493000012802D10020C8F808005046FEF764F8AC
:1049400085F800906D1C761EC7E7B81BBDE8F087A0
:104950002DE9F04104000D001600002C07D14FF4A2
:104960009E72DFF8A415DFF89005FDF706FF37000B
:10497000206D8046B8F1000F07D14FF4A072DFF828
:104980008815DFF88805FDF7F8FE002E24D028787A
:104990000A2810D1207E40060DD50D212000226C62
:1049A0009268904710F1010F05D15FF0FF3140464A
:1049B00000F068FFE9E729782000226C92689047B0
:1049C00010F1010F05D15FF0FF31404600F05AFFB2
:1049D000DBE76D1C761ED8E7B81BBDE8F08180B51B
:1049E000DFF82C05006800280FD1DFF82805FDF757
:1049F00094FEDFF82405FDF790FEDFF82005FDF7B3
:104A00008CFE0120DFF80815086001BD70B50400B8
:104A10000025002C07D140F23F22DFF80415DFF813
:104A20000405FDF7AAFE26000020F0640020306592
:104A3000306C0068002806D016F144013000326C5A
:104A4000126890470500280070BD2DE9F041040070
:104A50000D000026002C07D140F25222DFF8C814C6
:104A6000DFF8C004FDF789FE2700A80505D5E08A18
:104A7000800502D47FF0070095E0280505D5E08A7F
:104A8000000502D47FF007008DE0E80505D5E08A37
:104A9000C00502D47FF0070085E0680505D5E08AEF
:104AA000400502D47FF007007DE0680602D4207E36
:104AB000400601D540200600E8B22083F86C0028AB
:104AC00039D1E80534D5B86CC0F38F200C30FCF731
:104AD000C3FA8046B8F1000F07D140F27122DFF827
:104AE0004814DFF82004FDF748FE18F10C00C8F860
:104AF0000000B86CC0F38F220021D8F80000FDF749
:104B000098FA0020A8F804000020A8F80600002069
:104B1000C8F80800C7F84C80208B50F480702083C0
:104B20004FF48072102138003B6C5B68984708E0B6
:104B30000020F86405E0E80503D5208B50F4807070
:104B40002083386D002824D168051FD50C20FCF780
:104B500083FA8046B8F1000F07D14FF42C72DFF8CA
:104B6000C813DFF8C803FDF708FE404600F075FEE5
:104B7000C7F85080208B50F4806020834FF480620F
:104B8000102138003B6C5B68984708E000203865CE
:104B900005E0680503D5208B50F480602083208BCE
:104BA000304320830020BDE8F08170B50400002C64
:104BB00007D140F2E322DFF87813DFF86803FDF74E
:104BC000DCFD2500A07E022801DB00203CE0208BDC
:104BD000C0051AD5E86C0600002E05D140F2EE2281
:104BE000D349C848FDF7C9FD3000FCF783FB00201E
:104BF000E864208B4FF6FF61084020834FF48072F9
:104C0000112128002B6C5B689847208B40051AD532
:104C1000286D0600002E05D140F21632C449C34863
:104C2000FDF7ABFD3000FCF765FB00202865208B0D
:104C30004FF6FF31084020834FF480621121280095
:104C40002B6C5B689847002070BD2DE9F041040093
:104C50000D0016001F00002C05D140F23F32B5496F
:104C6000B048FDF78AFD002F01D100200EE0A046DC
:104C7000208BC00505D53A0031004046FFF710FEF5
:104C800004E03A0031004046FFF7BEFDBDE8F08188
:104C90002DE9F04104000D0016001F00002C05D185
:104CA00040F25932A4499F48FDF767FD002F01D11A
:104CB00000200EE0A046208B400505D53A003100CB
:104CC0004046FFF745FE04E03A0031004046FFF75A
:104CD000C2FDBDE8F0812DE9F84304000D00160087
:104CE0000027002C05D140F2D63294498D48FDF7BB
:104CF00044FDA046012D08D033D3032D0BD030D274
:104D0000E08A50F02000E08233E0E08A4FF6DF7165
:104D10000840E0822DE0002E22D0B146D9F80400F0
:104D2000C0F38F20D8F84810C1F38F2180B289B228
:104D3000884205D098F81A00002801D0072019E011
:104D4000D9E9000118F14402C2E9000198F81A00FB
:104D5000002805D031004046D8F84020126890471E
:104D600007E0320029004046D8F840305B68984799
:104D700007003800BDE8F2832DE9F84304000D0078
:104D800016001F00002C05D140F289426C495A4898
:104D9000FDF7F3FCA146002089F814000020C9F8B3
:104DA0001C000020C9F820006648C9F824006648A5
:104DB000C9F828006548C9F82C006548C9F83000D2
:104DC0006448C9F834006448C9F83800C9F83C7030
:104DD000320092B22900484600F0C2F880464046B0
:104DE000BDE8F2832DE9F84304000D00E8B2C0B23B
:104DF000012802D0022875D079E05FF0FF36E06C20
:104E00008046B8F1000F05D140F2B54253493D4804
:104E1000FDF7B3FC2000216CC9688847060016F135
:104E2000010F03D1E06900285BD036E0FDF7E8FD13
:104E30000700D8F80000B8F804100E54B8F80400C1
:104E4000401CA8F80400B8F80400A16CC1F38F213D
:104E500089B2884202D30020A8F80400B8F8040000
:104E6000B8F80610884214D1B8F80600401CA8F81B
:104E700006000120C8F80800B8F80600A16CC1F3CC
:104E80008F2189B2884202D30020A8F80600FFF7DC
:104E9000A6FD3800FDF7B8FDBCE7FDF7B1FD070042
:104EA000B8F80400B8F80610884206D3B8F8040031
:104EB000B8F80610B0EB010909E0A06CC0F38F2030
:104EC000B8F80610401AB8F8041010FA81F9380042
:104ED000FDF79AFDB9F1000F03D049462000E269C1
:104EE000904704E0206D0600300000F02DFDBDE885
:104EF000F183000028C1000860BD000838C1000827
:104F000048C1000874BD000858C1000868C1000805
:104F10001404002078C100081CA1000824C6000861
:104F200088C1000898C10008A8C1000888BD000811
:104F3000B8C10008C8C10008D8C100089CBD00085D
:104F400024B900080D4A00084B4A0008AB4B000882
:104F50004B4C0008914C0008D74C0008B0BD00082D
:104F600070B504000D001600002C02D15FF0FF3078
:104F700012E0280000F011F8002802D05FF0FF30A6
:104F80000AE02A000921200000F02AFAE682002027
:104F9000A07600202083002070BD10B504000921F8
:104FA000200000F029FB10BD70B504000D000026A4
:104FB000002C04D1D52285498148FDF7DEFB200075
:104FC00000F00CFB092804D0D62280497D48FDF76B
:104FD000D4FBA07DC00613D4606A00280CD020004A
:104FE000616A88470600002E06D03200210076480C
:104FF000FDF793FB300030E0E08A50F01000E082D3
:10500000A07D000705D5207E000702D57FF00600B1
:1050100023E0A06A002806D0290089B22000A26AF5
:105020009047060003E040F60F7028402083002ED2
:1050300002D016F1060F0FD1208B50F0080020830C
:10504000A07E401CA076A07E002805D14FF482727D
:105050005E495F48FDF791FB300070BD38B5040034
:105060000025002C05D14FF48B725A495448FDF7A6
:1050700084FB200000F0B2FA092805D040F2171294
:1050800054495048FDF779FBA07E002802D15FF01B
:10509000FF3016E0A07E401EA076A07E002801D042
:1050A00000200EE0E06A002803D02000E16A884773
:1050B0000500002D02D015F1060F01D1002020833C
:1050C000280032BDF8B504000D0016001F00002CAA
:1050D00005D14FF4A07240493948FDF74EFB20003E
:1050E00000F07CFA092805D040F241123A493548CF
:1050F000FDF743FBA07E002805D15FF0FF30FCF7F1
:1051000083FF00200FE0206B002807D03B00320017
:1051100029002000D4F830C0E04704E07FF005000B
:10512000FCF772FF0020F2BDF8B504000D00160078
:105130001F00002C05D140F2671228492048FDF7D6
:105140001CFB200000F04AFA092805D04FF4B47285
:1051500022491C48FDF711FBA07E002805D15FF015
:10516000FF30FCF751FF00200FE0606B002807D0F4
:105170003B00320029002000D4F834C0E04704E0AE
:105180007FF00500FCF740FF0020F2BD38B50400B9
:105190000D00002C05D14FF4D17211490848FDF7DC
:1051A000ECFA200000F01AFA092805D040F2A31208
:1051B0000B490448FDF7E1FAE561002032BD00002B
:1051C000E8BF0008B4A70008BCA90008F8BF0008A1
:1051D000F8BB000808C0000818C0000828C0000874
:1051E000A4B5000810B5074979441831064C7C4431
:1051F000163404E00A68081D511888470146A14288
:10520000F8D110BDCC6000001861000080B500F03E
:10521000CFFB0F4A0F49104800F013FC01BD00B549
:1052200083B0FFF7F3FF0A2001900A2000904FF4AB
:1052300080630022094905A0FDF7ACFD084908601C
:1052400007480068FDF769FD00200EBD6C6564002D
:10525000FCC50008F4C500081CC400087D9B0008BC
:10526000FC030020416802685160016842681160D7
:1052700040604168016070473E480168814201D04A
:10528000012000E00020C0B2704738B5FDF7B8FB40
:105290000400FBF775FD002808D037493748FDF7B3
:1052A0003CFA9B22344931A0FDF767FA2000FDF754
:1052B000ABFBFDF7A5FB0400FFF7DEFF002803D1E1
:1052C0002000FDF7A1FB11E02A4800681438050012
:1052D00015F11400FFF7C6FFA86AFCF70BF82800C9
:1052E00000F040F92000FDF78FFBE2E731BD38B553
:1052F000040000200500042D0AD21D4850F82500A6
:10530000002803D01A4850F8250080476D1CF2E7AA
:10531000FFF7BBFFEDE730B587B000200400002C9D
:1053200022D12200164904A8FDF7C4F920200390D9
:105330001F2002904FF48070019012484FF480714A
:1053400001FB0400009000230F4A04A90F488025A8
:1053500005FB0400FDF7A4FC0C48802101FB0400C0
:10536000FDF7DBFC641CDAE707B030BD300000005D
:10537000CC02001024040010C4B8000830B00008AB
:10538000E4C50008CC010010EF5200084C010010E9
:10539000704700000268516002680A60016048605E
:1053A000704741680268516001684268116040605E
:1053B000416801607047010000200200092A0DDAEF
:1053C000DFF8D0021301185CC9B2884204D1DFF8BB
:1053D000C40210EB021002E0521CEFE700207047FD
:1053E0002DE9F04704000D0016005FF000082800CA
:1053F000C0B2FFF7E0FF8146B9F1000F05D14FF4CD
:105400009C72A549A548FDF7B8F9FDF786FFD9F8C4
:105410000400804619F10400804510D0B8F10C005A
:105420008246BAF1000F07D0A24505D14FF4A4720D
:1054300099499B48FDF7A1F9D8F80080EAE7FDF704
:1054400079FF55F080002072082231002000FCF71F
:1054500039FE8E480068002803D020008B49096877
:105460008847FDF7CDFA070014F10C0119F104008B
:10547000FFF790FF3800FDF7C7FABDE8F08738B5B1
:105480000400002C05D140F2751286498648FDF7CC
:1054900074F97F480068002803D020007C4909681F
:1054A000884700202072FDF7ABFA050014F10C00CC
:1054B000FFF777FF2800FDF7A7FA31BD2DE9F84384
:1054C00004000D00FDF79CFA8146FBF759FC00280B
:1054D00009D076497648FDF720F94FF4CC7273492C
:1054E00069A0FDF74AF94846FDF78EFA2000C0B2E0
:1054F000FFF761FF8046B8F1000F05D14FF4CE727F
:105500006A496648FDF739F9D8F80C00FBF7A4FDA5
:105510000600002E01D1002022E0D8F80C20002146
:105520003000FCF786FD34720020707208222900DA
:105530003000FCF7C7FD55480068002803D0300054
:10554000524909688847FDF75BFA070016F10C011C
:1055500018F10400FFF71EFF3800FDF755FA300080
:10556000BDE8F28338B50400002C05D14FF4EB728E
:1055700050494D48FDF701F9207A000605D540F263
:10558000D7124C494C48FDF7F8F84148006800280C
:1055900003D020003E490968884700202072FDF7AB
:1055A0002FFA050014F10C00FFF7FBFE2800FDF7B1
:1055B0002BFA2000FBF79EFE31BD10B50400002C35
:1055C00005D14FF4FC723D493748FDF7D6F8207AF3
:1055D000000601D5012000E0002010BD10B5040038
:1055E000002C05D140F20B2235492F48FDF7C5F8B4
:1055F000207A10F07F0010BD2DE9F84304000D0063
:10560000002600275FF000082800C0B2FFF7D3FE95
:105610008046002C02D0B8F1000F01D100202FE00D
:10562000FDF7EEF98146FBF7ABFB002809D02549D1
:105630001F48FDF772F84FF40A72224912A0FDF7D5
:105640009CF84846FDF7E0F9FDF767FED8F804003E
:10565000070018F1040087420FD0B7F10C000600D4
:10566000082221003000FCF746FD002803D1FDF799
:1056700061FE300004E03F68EBE7FDF75BFE0020D1
:10568000BDE8F283000000003000000000040020AC
:1056900004040020C0000020B8C00008F4B80008CE
:1056A000C8C00008E8BC0008FCBC000810BD000829
:1056B000D0B0000824BD0008D0AD000830B6000806
:1056C00038BD0008D8C0000870B586B0040001A835
:1056D0001421FAF731FE2068204988422AD100209F
:1056E00000901F48006850F010001D4908601C48D9
:1056F000006810F010000090009D002000901948F4
:10570000006850F00100174908601648006810F062
:1057100001000090009E4FF4C060019002200290B2
:1057200000200390032004900720059001A90E4853
:10573000FEF7DAFA06B070BD10B50400206807491C
:1057400088420AD10648006830F010000449086019
:105750004FF4C0610448FEF7BDFB10BD00100140CE
:105760004438024030380240000002402DE9F8433E
:1057700004000D0016001F005FF00008D4F85890D8
:1057800094F83400012801D1022039E0012084F886
:10579000340094F8350001282BD1022084F835001C
:1057A000002060653B0032002900200000F02AF84C
:1057B0003F20E16D8840C9F808002068006850F07B
:1057C0001600216808602068406950F08000216858
:1057D0004861206C002805D02068006850F008005F
:1057E000216808602068006850F0010021680860A6
:1057F00004E0002084F83400022080464046C0B215
:10580000BDE8F28330B40468246834F48024056869
:105810002C60046863608468402C04D10468A26032
:105820000468E16003E00468A1600468E26030BCE1
:105830007047000040604168016070474268116035
:1058400042684A604160086070470168814201D146
:10585000012000E00020C0B2704738B50400002CE1
:1058600004D115224C494D48FCF787FFFDF7C8F8D5
:10587000050000202060201DFFF7DCFF2800FDF759
:10588000C3F831BD2DE9F3410400002C04D12422DA
:1058900043494248FCF771FF00200500FDF739FA43
:1058A0000700FDF7ADF806002068012844D0201D50
:1058B000FFF7CBFF002804D12D2239493948FCF7E6
:1058C0005CFF0198002803D17FF00100050035E05E
:1058D000002038633800FDF7D4FA17F11401201DB9
:1058E000FFF7ACFFFDF78CF88046FBF749FA00287C
:1058F00008D02B492C48FCF710FF4022284925A04E
:10590000FCF73BFF4046FDF77FF80198012809DBD3
:1059100001AA002117F14C00FDF7F9FE17F14C0028
:10592000FDF7FCFD3000FDF76FF8FDF708FC386B64
:105930000500FDF765F80600002020603000FDF747
:1059400063F82800BDE8F68170B50400002C04D18E
:10595000642216491148FCF710FF2068012818D06E
:10596000FDF74EF8050001202060201DFFF76DFFB8
:1059700000280BD16068143806003000FDF7CDFA1E
:105980002800FDF741F8FDF7DAFB02E02800FDF7FB
:105990003BF870BD30000000A8BB0008ACB80008A0
:1059A000BCBB000834AC000808B00008D0BB00083D
:1059B00010B500241D480078844210DA1C4810EB12
:1059C000C40000F045FD0122194810EBC400818895
:1059D000174850F83400FEF73AFB641CEAE710BDA4
:1059E00010B50400E00707D500221148818810484F
:1059F0000068FEF72CFB06E001220D4881880C4868
:105A00000068FEF724FBA00707D50022084881891B
:105A100007488068FEF71BFB06E0012204488189E5
:105A200003488068FEF713FB10BD000074020020DD
:105A300060020020EFF309807047704768467047A6
:105A4000704770B504000D00160020222100DFF819
:105A5000540900F011FD20222900DFF84C0900F064
:105A60000BFD20223100DFF8440900F005FDDFF8CE
:105A70004009DFF840190860DFF83C09DFF8341905
:105A80000968401ADFF834190860DFF83409DFF8D4
:105A900034190860DFF83009DFF828190968401A5E
:105AA000DFF828190860DFF814090068002808D119
:105AB000DFF81C090068FCF730FEA7A0FCF72DFEFC
:105AC00003E00120DFF80C19087070BD80B5DFF825
:105AD000DC38DFF8D428DFF8CC18DFF8F4084068A9
